:020000020000FC
:100000000FEF04B900E005B90E94870001E005B9CF
:100010000E94870002E005B90E94870003E005B94D
:100020000E94870004E005B90E94870005E005B939
:100030000E94870006E005B90E94870007E005B925
:100040000E94870008E005B90E94870009E005B911
:100050000E9487000AE005B90E9487000BE005B9FD
:100060000E9487000CE005B90E9487000DE005B9E9
:100070000E9487000EE005B90E9487000FE005B9D5
:100080000E94870000E105B90E94870001E105B9DF
:100090000E94870002E105B90E94870003E105B9CB
:1000A0000E94870004E105B90E94870005E105B9B7
:1000B0000E94870006E105B90E94870007E105B9A3
:1000C0000E94870008E105B90E94870009E105B98F
:1000D0000E9487000AE105B90E9487000BE105B97B
:1000E0000E9487000CE105B90E9487000DE105B967
:1000F0000E9487000EE105B90E9487000FE105B953
:100100000E94870000E205B90E9487007BCF4AEF7A
:1001100000000000000000004A95D1F73A95B9F7B9
:02012000089540
:00000001FF
